:020000040000FA
:060000000A128A11F82F1C
:100D4E008316031789018801831603138601013068
:100D5E008800013087000130890083120313860159
:100D6E00870188010800831203130614D030F500A2
:100D7E00C930F400F40BC12EF50BC12EC62E831212
:100D8E00031306108614D030F500C930F400F40BAE
:100D9E00CE2EF50BCE2ED32E8312031386100615F0
:100DAE00080072037304031DDD2EDE2EE12E831266
:100DBE0003138714023072067304031DE72EE82E08
:100DCE00EB2E831203130715033072067304031DF3
:100DDE00F12EF22EF52E83120313871504307206B0
:100DEE007304031DFB2EFC2EFF2E83120313071616
:100DFE00053072067304031D052F062F092F83126B
:100E0E0003138716063072067304031D0F2F102F5F
:100E1E00132F831203130717073072067304031D73
:100E2E00192F1A2F1D2F83120313871708307206DE
:100E3E007304031D232F242F272F831203138615CC
:100E4E00080070037104031D2D2F2E2F312F8312D6
:100E5E0003138814023070067104031D372F382FC8
:100E6E003B2F831203130815033070067104031D04
:100E7E00412F422F452F831203138815043070061D
:100E8E007104031D4B2F4C2F4F2F83120313081683
:100E9E00053070067104031D552F562F592F8312DE
:100EAE0003138816063070067104031D5F2F602F22
:100EBE00632F831203130817073070067104031D86
:100ECE00692F6A2F6D2F831203138817083070064F
:100EDE007104031D732F742F772F831203130616BD
:100EEE0008000A128A11A7260A128A118312031306
:100EFE00091C822F832FF52F0A128A11BA260A1285
:100F0E008A1183120313061D8D2F8E2FF52FDA2FC4
:100F1E004E30F700EB30F600F60B932FF70B932FB6
:100F2E0083120313071C9C2F9D2FA52F7208013EC1
:100F3E00F20073080318013E003EF300081CA82FB0
:100F4E00A92FB12F7008013EF00071080318013E61
:100F5E00003EF100061EB42FB62F0130B72F003021
:100F6E00F600861DBB2FBD2F0130BE2F003076053B
:100F7E0000380319C32FC42FDA2F861DC72FC82F91
:100F8E00CA2F0810DA2F061ECD2FCE2FD02F071006
:100F9E00DA2F0A128A11D8260A128A110A128A1117
:100FAE0028270A128A117308803AFF0080307F02C8
:100FBE00031DE32F093072020318E62FE72FF52FDA
:100FCE007108803AFF0080307F02031DF02F093038
:100FDE007002031CF32FF42F8F2FF52F0A128A1194
:100FEE000028F001F101F201F30183010A128A11C6
:020FFE00782F4A
:04400E00D120FF3F7F
:00000001FF
