:020000040000FA
:060000000A128A11F82F1C
:100DB4008316031789018801831603138601013002
:100DC40088000130870001308900831203138601F3
:100DD400870188010800831203130614D030F5003C
:100DE400C930F400F40BF42EF50BF42EF92E831213
:100DF400031306108614D030F500C930F400F40B48
:100E0400012FF50B012F062F8312031386100615ED
:100E1400080072037304031D102F112F142F831263
:100E240003138714023072067304031D1A2F1B2F39
:100E34001E2F831203130715033072067304031D58
:100E4400242F252F282F83120313871504307206AD
:100E54007304031D2E2F2F2F322F83120313071613
:100E6400053072067304031D382F392F3C2F83126B
:100E740003138716063072067304031D422F432F93
:100E8400462F831203130717073072067304031DDA
:100E94004C2F4D2F502F8312031387170800700314
:100EA4007104031D562F572F5A2F831203138814CE
:100EB400023070067104031D602F612F642F8312AA
:100EC40003130815033070067104031D6A2F6B2F7A
:100ED4006E2F831203138815043070067104031DEA
:100EE400742F752F782F831203130816053070069C
:100EF4007104031D7E2F7F2F822F83120313881604
:100F0400063070067104031D882F892F8C2F8312DD
:100F140003130817073070067104031D922F932FD3
:100F2400962F83120313881708000A128A11DA26EF
:100F34000A128A1183120313091CA12FA22FF52F61
:100F44000A128A11ED260A128A1183120313061D4E
:100F5400AC2FAD2FF52FDA2F4E30F700EB30F60023
:100F6400F60BB22FF70BB22F83120313071CBB2F00
:100F7400BC2FC42F7208013EF20073080318013E0F
:100F8400003EF300081CC72FC82FD02F7008013E65
:100F9400F00071080318013E003EF1000A128A11A4
:100FA4000B270A128A110A128A1151270A128A116E
:100FB4007308803AFF0080307F02031DE32F08305E
:100FC40072020318E62FE72FF52F7108803AFF000D
:100FD40080307F02031DF02F08307002031CF32FB2
:100FE400F42FAE2FF52F0A128A110028F001F10117
:0C0FF400F201F30183010A128A11972F09
:04400E00D120FF3F7F
:00000001FF
